{
  "_format": "hh-sol-artifact-1",
  "contractName": "Wallet",
  "sourceName": "contracts/Wallet.sol",
  "abi": [
    {
      "inputs": [],
      "stateMutability": "nonpayable",
      "type": "constructor"
    },
    {
      "anonymous": false,
      "inputs": [
        {
          "indexed": true,
          "internalType": "address",
          "name": "sender",
          "type": "address"
        },
        {
          "indexed": false,
          "internalType": "uint256",
          "name": "value",
          "type": "uint256"
        },
        {
          "indexed": false,
          "internalType": "uint256",
          "name": "balance",
          "type": "uint256"
        }
      ],
      "name": "Receive",
      "type": "event"
    },
    {
      "anonymous": false,
      "inputs": [
        {
          "indexed": false,
          "internalType": "address",
          "name": "sender",
          "type": "address"
        },
        {
          "indexed": false,
          "internalType": "uint256",
          "name": "txIndex",
          "type": "uint256"
        },
        {
          "indexed": false,
          "internalType": "address",
          "name": "recipient",
          "type": "address"
        },
        {
          "indexed": false,
          "internalType": "uint256",
          "name": "amount",
          "type": "uint256"
        }
      ],
      "name": "StartTransaction",
      "type": "event"
    },
    {
      "inputs": [],
      "name": "getNumber",
      "outputs": [
        {
          "internalType": "int256",
          "name": "",
          "type": "int256"
        }
      ],
      "stateMutability": "pure",
      "type": "function"
    },
    {
      "inputs": [],
      "name": "getOwner",
      "outputs": [
        {
          "internalType": "address payable",
          "name": "",
          "type": "address"
        }
      ],
      "stateMutability": "view",
      "type": "function"
    },
    {
      "inputs": [],
      "name": "owner",
      "outputs": [
        {
          "internalType": "address payable",
          "name": "",
          "type": "address"
        }
      ],
      "stateMutability": "view",
      "type": "function"
    },
    {
      "inputs": [
        {
          "internalType": "address",
          "name": "_recipient",
          "type": "address"
        },
        {
          "internalType": "uint256",
          "name": "_amount",
          "type": "uint256"
        }
      ],
      "name": "startTransaction",
      "outputs": [],
      "stateMutability": "nonpayable",
      "type": "function"
    },
    {
      "inputs": [
        {
          "internalType": "uint256",
          "name": "",
          "type": "uint256"
        }
      ],
      "name": "transactions",
      "outputs": [
        {
          "internalType": "address",
          "name": "recipient",
          "type": "address"
        },
        {
          "internalType": "uint256",
          "name": "amount",
          "type": "uint256"
        },
        {
          "internalType": "uint256",
          "name": "numLayersSuccessful",
          "type": "uint256"
        },
        {
          "internalType": "bool",
          "name": "executed",
          "type": "bool"
        }
      ],
      "stateMutability": "view",
      "type": "function"
    },
    {
      "stateMutability": "payable",
      "type": "receive"
    }
  ],
  "bytecode": "0x608060405234801561001057600080fd5b50336000806101000a81548173ffffffffffffffffffffffffffffffffffffffff021916908373ffffffffffffffffffffffffffffffffffffffff160217905550610727806100606000396000f3fe60806040526004361061004e5760003560e01c806311a34f38146100aa578063893d20e8146100d35780638da5cb5b146100fe5780639ace38c214610129578063f2c9ecd814610169576100a5565b366100a5573373ffffffffffffffffffffffffffffffffffffffff167f7baf877f743c7240b0ee6b03d05a9d82c1d5b9c590beb886830f6f8edd07d881344760405161009b92919061042b565b60405180910390a2005b600080fd5b3480156100b657600080fd5b506100d160048036038101906100cc91906104e3565b610194565b005b3480156100df57600080fd5b506100e861034f565b6040516100f59190610544565b60405180910390f35b34801561010a57600080fd5b50610113610378565b6040516101209190610544565b60405180910390f35b34801561013557600080fd5b50610150600480360381019061014b919061055f565b61039c565b60405161016094939291906105b6565b60405180910390f35b34801561017557600080fd5b5061017e610409565b60405161018b9190610614565b60405180910390f35b600160003373ffffffffffffffffffffffffffffffffffffffff1673ffffffffffffffffffffffffffffffffffffffff16815260200190815260200160002060009054906101000a900460ff16610220576040517f08c379a00000000000000000000000000000000000000000000000000000000081526004016102179061068c565b60405180910390fd5b60006002805490509050600260405180608001604052808573ffffffffffffffffffffffffffffffffffffffff1681526020018481526020016000815260200160001515815250908060018154018082558091505060019003906000526020600020906004020160009091909190915060008201518160000160006101000a81548173ffffffffffffffffffffffffffffffffffffffff021916908373ffffffffffffffffffffffffffffffffffffffff160217905550602082015181600101556040820151816002015560608201518160030160006101000a81548160ff02191690831515021790555050507fa3027ed1d08b2ed926f4f4c5100384f45757bac39e231f38cfd808ecee95174b3382858560405161034294939291906106ac565b60405180910390a1505050565b60008060009054906101000a900473ffffffffffffffffffffffffffffffffffffffff16905090565b60008054906101000a900473ffffffffffffffffffffffffffffffffffffffff1681565b600281815481106103ac57600080fd5b90600052602060002090600402016000915090508060000160009054906101000a900473ffffffffffffffffffffffffffffffffffffffff16908060010154908060020154908060030160009054906101000a900460ff16905084565b60006008905090565b6000819050919050565b61042581610412565b82525050565b6000604082019050610440600083018561041c565b61044d602083018461041c565b9392505050565b600080fd5b600073ffffffffffffffffffffffffffffffffffffffff82169050919050565b600061048482610459565b9050919050565b61049481610479565b811461049f57600080fd5b50565b6000813590506104b18161048b565b92915050565b6104c081610412565b81146104cb57600080fd5b50565b6000813590506104dd816104b7565b92915050565b600080604083850312156104fa576104f9610454565b5b6000610508858286016104a2565b9250506020610519858286016104ce565b9150509250929050565b600061052e82610459565b9050919050565b61053e81610523565b82525050565b60006020820190506105596000830184610535565b92915050565b60006020828403121561057557610574610454565b5b6000610583848285016104ce565b91505092915050565b61059581610479565b82525050565b60008115159050919050565b6105b08161059b565b82525050565b60006080820190506105cb600083018761058c565b6105d8602083018661041c565b6105e5604083018561041c565b6105f260608301846105a7565b95945050505050565b6000819050919050565b61060e816105fb565b82525050565b60006020820190506106296000830184610605565b92915050565b600082825260208201905092915050565b7f6e6f74206f776e65720000000000000000000000000000000000000000000000600082015250565b600061067660098361062f565b915061068182610640565b602082019050919050565b600060208201905081810360008301526106a581610669565b9050919050565b60006080820190506106c1600083018761058c565b6106ce602083018661041c565b6106db604083018561058c565b6106e8606083018461041c565b9594505050505056fea26469706673582212202517c5e162cf182c3471200db1f50735d41294a13ba7e46c4730c23689444d5064736f6c63430008110033",
  "linkReferences": {},
  "deployedLinkReferences": {}
}